{
  "contractName": "MineProxy",
  "abi": [
    {
      "inputs": [
        {
          "internalType": "address",
          "name": "_mine",
          "type": "address"
        }
      ],
      "stateMutability": "nonpayable",
      "type": "constructor"
    },
    {
      "inputs": [],
      "name": "mine",
      "outputs": [
        {
          "internalType": "contract Ownable",
          "name": "",
          "type": "address"
        }
      ],
      "stateMutability": "view",
      "type": "function",
      "constant": true
    },
    {
      "inputs": [
        {
          "internalType": "bytes",
          "name": "callData",
          "type": "bytes"
        },
        {
          "internalType": "bytes",
          "name": "signCallData",
          "type": "bytes"
        }
      ],
      "name": "claim",
      "outputs": [],
      "stateMutability": "nonpayable",
      "type": "function"
    }
  ],
  "bytecode": "0x608060405234801561001057600080fd5b5060405161084e38038061084e83398101604081905261002f91610054565b600080546001600160a01b0319166001600160a01b0392909216919091179055610082565b600060208284031215610065578081fd5b81516001600160a01b038116811461007b578182fd5b9392505050565b6107bd806100916000396000f3fe608060405234801561001057600080fd5b50600436106100365760003560e01c806399f4b2511461003b578063be27b22c14610059575b600080fd5b61004361006e565b6040516100509190610608565b60405180910390f35b61006c6100673660046104e6565b61007d565b005b6000546001600160a01b031681565b60008054906101000a90046001600160a01b03166001600160a01b0316638da5cb5b6040518163ffffffff1660e01b815260040160206040518083038186803b1580156100c957600080fd5b505afa1580156100dd573d6000803e3d6000fd5b505050506040513d601f19601f8201168201806040525081019061010191906104b8565b6001600160a01b031661012d82858560405161011e9291906105da565b604051908190039020906101e5565b6001600160a01b03161461015c5760405162461bcd60e51b815260040161015390610703565b60405180910390fd5b600080546040516001600160a01b039091169061017c90869086906105da565b6000604051808303816000865af19150503d80600081146101b9576040519150601f19603f3d011682016040523d82523d6000602084013e6101be565b606091505b50509050806101df5760405162461bcd60e51b81526004016101539061068a565b50505050565b60008060006101f48585610209565b9150915061020181610279565b509392505050565b6000808251604114156102405760208301516040840151606085015160001a610234878285856103a9565b94509450505050610272565b82516040141561026a576020830151604084015161025f868383610489565b935093505050610272565b506000905060025b9250929050565b600081600481111561029b57634e487b7160e01b600052602160045260246000fd5b14156102a6576103a6565b60018160048111156102c857634e487b7160e01b600052602160045260246000fd5b14156102e65760405162461bcd60e51b81526004016101539061061c565b600281600481111561030857634e487b7160e01b600052602160045260246000fd5b14156103265760405162461bcd60e51b815260040161015390610653565b600381600481111561034857634e487b7160e01b600052602160045260246000fd5b14156103665760405162461bcd60e51b8152600401610153906106c1565b600481600481111561038857634e487b7160e01b600052602160045260246000fd5b14156103a65760405162461bcd60e51b81526004016101539061072f565b50565b6000807f7fffffffffffffffffffffffffffffff5d576e7357a4501ddfe92f46681b20a08311156103e05750600090506003610480565b8460ff16601b141580156103f857508460ff16601c14155b156104095750600090506004610480565b60006001878787876040516000815260200160405260405161042e94939291906105ea565b6020604051602081039080840390855afa158015610450573d6000803e3d6000fd5b5050604051601f1901519150506001600160a01b03811661047957600060019250925050610480565b9150600090505b94509492505050565b6000806001600160ff1b03831660ff84901c601b016104aa878288856103a9565b935093505050935093915050565b6000602082840312156104c9578081fd5b81516001600160a01b03811681146104df578182fd5b9392505050565b6000806000604084860312156104fa578182fd5b833567ffffffffffffffff80821115610511578384fd5b818601915086601f830112610524578384fd5b813581811115610532578485fd5b60208881838601011115610544578586fd5b80840196508195508088013593508284111561055e578485fd5b838801935088601f850112610571578485fd5b833591508282111561058557610585610771565b604051601f8301601f19168101820184811182821017156105a8576105a8610771565b60405282815284830182018a10156105be578586fd5b8282860183830137918201019390935250929591945092509050565b6000828483379101908152919050565b93845260ff9290921660208401526040830152606082015260800190565b6001600160a01b0391909116815260200190565b60208082526018908201527f45434453413a20696e76616c6964207369676e61747572650000000000000000604082015260600190565b6020808252601f908201527f45434453413a20696e76616c6964207369676e6174757265206c656e67746800604082015260600190565b6020808252601e908201527f45585445524e414c5f535741505f455845435554494f4e5f4641494c45440000604082015260600190565b60208082526022908201527f45434453413a20696e76616c6964207369676e6174757265202773272076616c604082015261756560f01b606082015260800190565b602080825260129082015271115610d5551157d0d0531317d1905253115160721b604082015260600190565b60208082526022908201527f45434453413a20696e76616c6964207369676e6174757265202776272076616c604082015261756560f01b606082015260800190565b634e487b7160e01b600052604160045260246000fdfea264697066735822122079b9aee2a75eafd97cfed32f3d3324e68eb6463b306f7076bcaf99d58ee4e58f64736f6c63430008000033",
  "immutableReferences": {},
  "source": "// SPDX-License-Identifier: MIT\npragma solidity >=0.4.22 <0.9.0;\n\nimport \"@openzeppelin/contracts/utils/cryptography/ECDSA.sol\";\nimport \"@openzeppelin/contracts/access/Ownable.sol\";\n\ncontract MineProxy {\n    using ECDSA for bytes32;\n\n    Ownable public mine;\n\n    constructor(address _mine) {\n        mine = Ownable(_mine);\n    }\n\n    function claim(bytes calldata callData, bytes memory signCallData) public {\n        require(\n            keccak256(callData).recover(signCallData) == mine.owner(),\n            \"EXCUTE_CALL_FAILED\"\n        );\n        (bool success, ) = address(mine).call(callData);\n        require(success, \"EXTERNAL_SWAP_EXECUTION_FAILED\");\n    }\n}\n",
  "sourcePath": "/Users/zhangleping/git.local/rari-token/contracts/MineProxy.sol",
  "compiler": {
    "name": "solc",
    "version": "0.8.0+commit.c7dfd78e.Emscripten.clang"
  },
  "schemaVersion": "3.4.1",
  "updatedAt": "2022-01-10T04:56:18.122Z",
  "networkType": "ethereum",
  "devdoc": {
    "kind": "dev",
    "methods": {},
    "version": 1
  },
  "userdoc": {
    "kind": "user",
    "methods": {},
    "version": 1
  }
}