{
  "contractName": "RariMine",
  "abi": [
    {
      "inputs": [
        {
          "internalType": "contract ERC20",
          "name": "_token",
          "type": "address"
        },
        {
          "internalType": "address",
          "name": "_tokenOwner",
          "type": "address"
        }
      ],
      "stateMutability": "nonpayable",
      "type": "constructor"
    },
    {
      "anonymous": false,
      "inputs": [
        {
          "indexed": true,
          "internalType": "address",
          "name": "owner",
          "type": "address"
        },
        {
          "indexed": false,
          "internalType": "uint256",
          "name": "balance",
          "type": "uint256"
        }
      ],
      "name": "BalanceChange",
      "type": "event"
    },
    {
      "anonymous": false,
      "inputs": [
        {
          "indexed": true,
          "internalType": "address",
          "name": "previousOwner",
          "type": "address"
        },
        {
          "indexed": true,
          "internalType": "address",
          "name": "newOwner",
          "type": "address"
        }
      ],
      "name": "OwnershipTransferred",
      "type": "event"
    },
    {
      "inputs": [
        {
          "internalType": "address",
          "name": "",
          "type": "address"
        }
      ],
      "name": "balances",
      "outputs": [
        {
          "internalType": "uint256",
          "name": "",
          "type": "uint256"
        }
      ],
      "stateMutability": "view",
      "type": "function"
    },
    {
      "inputs": [],
      "name": "owner",
      "outputs": [
        {
          "internalType": "address",
          "name": "",
          "type": "address"
        }
      ],
      "stateMutability": "view",
      "type": "function"
    },
    {
      "inputs": [],
      "name": "renounceOwnership",
      "outputs": [],
      "stateMutability": "nonpayable",
      "type": "function"
    },
    {
      "inputs": [],
      "name": "token",
      "outputs": [
        {
          "internalType": "contract ERC20",
          "name": "",
          "type": "address"
        }
      ],
      "stateMutability": "view",
      "type": "function"
    },
    {
      "inputs": [],
      "name": "tokenOwner",
      "outputs": [
        {
          "internalType": "address",
          "name": "",
          "type": "address"
        }
      ],
      "stateMutability": "view",
      "type": "function"
    },
    {
      "inputs": [
        {
          "internalType": "address",
          "name": "newOwner",
          "type": "address"
        }
      ],
      "name": "transferOwnership",
      "outputs": [],
      "stateMutability": "nonpayable",
      "type": "function"
    },
    {
      "inputs": [],
      "name": "claim",
      "outputs": [],
      "stateMutability": "nonpayable",
      "type": "function"
    },
    {
      "inputs": [
        {
          "components": [
            {
              "internalType": "address",
              "name": "recipient",
              "type": "address"
            },
            {
              "internalType": "uint256",
              "name": "value",
              "type": "uint256"
            }
          ],
          "internalType": "struct RariMine.Balance[]",
          "name": "_balances",
          "type": "tuple[]"
        }
      ],
      "name": "plus",
      "outputs": [],
      "stateMutability": "nonpayable",
      "type": "function"
    },
    {
      "inputs": [
        {
          "components": [
            {
              "internalType": "address",
              "name": "recipient",
              "type": "address"
            },
            {
              "internalType": "uint256",
              "name": "value",
              "type": "uint256"
            }
          ],
          "internalType": "struct RariMine.Balance[]",
          "name": "_balances",
          "type": "tuple[]"
        }
      ],
      "name": "minus",
      "outputs": [],
      "stateMutability": "nonpayable",
      "type": "function"
    }
  ],
  "bytecode": "0x608060405234801561001057600080fd5b50604051610ca9380380610ca983398101604081905261002f916100c4565b61003f61003a610070565b610074565b600180546001600160a01b039384166001600160a01b03199182161790915560028054929093169116179055610115565b3390565b600080546001600160a01b038381166001600160a01b0319831681178455604051919092169283917f8be0079c531659141344cd1fd0a4f28419497f9722a3daafe3b4186f6b6457e09190a35050565b600080604083850312156100d6578182fd5b82516100e1816100fd565b60208401519092506100f2816100fd565b809150509250929050565b6001600160a01b038116811461011257600080fd5b50565b610b85806101246000396000f3fe608060405234801561001057600080fd5b50600436106100935760003560e01c80638da5cb5b116100665780638da5cb5b146100e6578063a3e67610146100fb578063bef9cdfd14610103578063f2fde38b14610116578063fc0c546a1461012957610093565b806327e235e3146100985780634e71d92d146100c1578063715018a6146100cb578063733c02e5146100d3575b600080fd5b6100ab6100a63660046107f7565b610131565b6040516100b8919061094f565b60405180910390f35b6100c9610143565b005b6100c9610274565b6100c96100e1366004610811565b6102bf565b6100ee61048a565b6040516100b89190610917565b6100ee610499565b6100c9610111366004610811565b6104a8565b6100c96101243660046107f7565b6106f4565b6100ee610765565b60036020526000908152604090205481565b33600090815260036020526040902054806101795760405162461bcd60e51b8152600401610170906109d5565b60405180910390fd5b336000818152600360205260408082209190915560015460025491516323b872dd60e01b81526001600160a01b03918216936323b872dd936101c1931691869060040161092b565b602060405180830381600087803b1580156101db57600080fd5b505af11580156101ef573d6000803e3d6000fd5b505050506040513d601f19601f8201168201806040525081019061021391906108f7565b61022f5760405162461bcd60e51b815260040161017090610a78565b336001600160a01b03167f07b05dda14be236904a87f2818f6f1979eee34ca6f67fc5d014b048e9ccc6c6b6000604051610269919061094f565b60405180910390a250565b61027c610774565b6001600160a01b031661028d61048a565b6001600160a01b0316146102b35760405162461bcd60e51b815260040161017090610a0c565b6102bd6000610778565b565b6102c7610774565b6001600160a01b03166102d861048a565b6001600160a01b0316146102fe5760405162461bcd60e51b815260040161017090610a0c565b60005b815181101561048657600082828151811061032c57634e487b7160e01b600052603260045260246000fd5b6020026020010151600001519050600083838151811061035c57634e487b7160e01b600052603260045260246000fd5b602002602001015160200151905060006001600160a01b0316826001600160a01b0316141561039d5760405162461bcd60e51b815260040161017090610a41565b806103ba5760405162461bcd60e51b815260040161017090610958565b61041d8484815181106103dd57634e487b7160e01b600052603260045260246000fd5b60200260200101516020015160036000856001600160a01b03166001600160a01b03168152602001908152602001600020546107c890919063ffffffff16565b6001600160a01b038316600081815260036020526040908190208390555190917f07b05dda14be236904a87f2818f6f1979eee34ca6f67fc5d014b048e9ccc6c6b91610469919061094f565b60405180910390a25050808061047e90610b08565b915050610301565b5050565b6000546001600160a01b031690565b6002546001600160a01b031681565b6104b0610774565b6001600160a01b03166104c161048a565b6001600160a01b0316146104e75760405162461bcd60e51b815260040161017090610a0c565b60005b815181101561048657600082828151811061051557634e487b7160e01b600052603260045260246000fd5b6020026020010151600001519050600083838151811061054557634e487b7160e01b600052603260045260246000fd5b602002602001015160200151905060006001600160a01b0316826001600160a01b031614156105865760405162461bcd60e51b815260040161017090610a41565b806105a35760405162461bcd60e51b815260040161017090610958565b8383815181106105c357634e487b7160e01b600052603260045260246000fd5b60200260200101516020015160036000846001600160a01b03166001600160a01b031681526020019081526020016000205411156106755783838151811061061b57634e487b7160e01b600052603260045260246000fd5b60200260200101516020015160036000846001600160a01b03166001600160a01b03168152602001908152602001600020546106579190610af1565b6001600160a01b03831660009081526003602052604090205561068f565b6001600160a01b0382166000908152600360205260408120555b6001600160a01b038216600081815260036020526040908190205490517f07b05dda14be236904a87f2818f6f1979eee34ca6f67fc5d014b048e9ccc6c6b916106d79161094f565b60405180910390a2505080806106ec90610b08565b9150506104ea565b6106fc610774565b6001600160a01b031661070d61048a565b6001600160a01b0316146107335760405162461bcd60e51b815260040161017090610a0c565b6001600160a01b0381166107595760405162461bcd60e51b81526004016101709061098f565b61076281610778565b50565b6001546001600160a01b031681565b3390565b600080546001600160a01b038381166001600160a01b0319831681178455604051919092169283917f8be0079c531659141344cd1fd0a4f28419497f9722a3daafe3b4186f6b6457e09190a35050565b60006107d48284610ad9565b9392505050565b80356001600160a01b03811681146107f257600080fd5b919050565b600060208284031215610808578081fd5b6107d4826107db565b60006020808385031215610823578182fd5b823567ffffffffffffffff8082111561083a578384fd5b818501915085601f83011261084d578384fd5b81358181111561085f5761085f610b39565b61086c8485830201610aaf565b818152848101908486016040808502870188018b101561088a578889fd5b8896505b848710156108e85780828c0312156108a4578889fd5b805181810181811088821117156108bd576108bd610b39565b82526108c8836107db565b81528289013589820152845260019690960195928701929081019061088e565b50909998505050505050505050565b600060208284031215610908578081fd5b815180151581146107d4578182fd5b6001600160a01b0391909116815260200190565b6001600160a01b039384168152919092166020820152604081019190915260600190565b90815260200190565b60208082526018908201527f76616c75652073686f756c6420626520706f7369746976650000000000000000604082015260600190565b60208082526026908201527f4f776e61626c653a206e6577206f776e657220697320746865207a65726f206160408201526564647265737360d01b606082015260800190565b6020808252601a908201527f62616c616e63652073686f756c6420626520706f736974697665000000000000604082015260600190565b6020808252818101527f4f776e61626c653a2063616c6c6572206973206e6f7420746865206f776e6572604082015260600190565b6020808252601b908201527f526563697069656e742073686f756c642062652070726573656e740000000000604082015260600190565b6020808252601a908201527f7472616e73666572206973206e6f74207375636365737366756c000000000000604082015260600190565b60405181810167ffffffffffffffff81118282101715610ad157610ad1610b39565b604052919050565b60008219821115610aec57610aec610b23565b500190565b600082821015610b0357610b03610b23565b500390565b6000600019821415610b1c57610b1c610b23565b5060010190565b634e487b7160e01b600052601160045260246000fd5b634e487b7160e01b600052604160045260246000fdfea26469706673582212203c49854bce9184030a5ed778fb453b3145f83aa7addcd6d593b9d4c8842251e864736f6c63430008000033",
  "immutableReferences": {},
  "source": "// SPDX-License-Identifier: MIT\npragma solidity >=0.4.22 <0.9.0;\n\nimport \"@openzeppelin/contracts/access/Ownable.sol\";\nimport \"@openzeppelin/contracts/token/ERC20/ERC20.sol\";\nimport \"@openzeppelin/contracts/utils/math/SafeMath.sol\";\n\ncontract RariMine is Ownable {\n    using SafeMath for uint256;\n\n    event BalanceChange(address indexed owner, uint256 balance);\n\n    struct Balance {\n        address recipient;\n        uint256 value;\n    }\n\n    ERC20 public token;\n    address public tokenOwner;\n    mapping(address => uint256) public balances;\n\n    constructor(ERC20 _token, address _tokenOwner) {\n        token = _token;\n        tokenOwner = _tokenOwner;\n    }\n\n    function claim() public {\n        uint256 balance = balances[msg.sender];\n        require(balance > 0, \"balance should be positive\");\n        balances[msg.sender] = 0;\n        require(\n            token.transferFrom(tokenOwner, msg.sender, balance),\n            \"transfer is not successful\"\n        );\n        emit BalanceChange(msg.sender, 0);\n    }\n\n    function plus(Balance[] memory _balances) public onlyOwner {\n        for (uint256 i = 0; i < _balances.length; i++) {\n            address recipient = _balances[i].recipient;\n            uint256 value = _balances[i].value;\n            require(recipient != address(0x0), \"Recipient should be present\");\n            require(value != 0, \"value should be positive\");\n            balances[recipient] = balances[recipient].add(_balances[i].value);\n            emit BalanceChange(recipient, balances[recipient]);\n        }\n    }\n\n    function minus(Balance[] memory _balances) public onlyOwner {\n        for (uint256 i = 0; i < _balances.length; i++) {\n            address recipient = _balances[i].recipient;\n            uint256 value = _balances[i].value;\n            require(recipient != address(0x0), \"Recipient should be present\");\n            require(value != 0, \"value should be positive\");\n            if (balances[recipient] > _balances[i].value) {\n                balances[recipient] = balances[recipient] - _balances[i].value;\n            } else {\n                balances[recipient] = 0;\n            }\n            emit BalanceChange(recipient, balances[recipient]);\n        }\n    }\n}\n",
  "sourcePath": "/Users/zhangleping/git.local/rari-token/contracts/RaRiMine.sol",
  "compiler": {
    "name": "solc",
    "version": "0.8.0+commit.c7dfd78e.Emscripten.clang"
  },
  "schemaVersion": "3.4.1",
  "updatedAt": "2022-01-10T02:26:05.412Z",
  "devdoc": {
    "kind": "dev",
    "methods": {
      "owner()": {
        "details": "Returns the address of the current owner."
      },
      "renounceOwnership()": {
        "details": "Leaves the contract without owner. It will not be possible to call `onlyOwner` functions anymore. Can only be called by the current owner. NOTE: Renouncing ownership will leave the contract without an owner, thereby removing any functionality that is only available to the owner."
      },
      "transferOwnership(address)": {
        "details": "Transfers ownership of the contract to a new account (`newOwner`). Can only be called by the current owner."
      }
    },
    "version": 1
  },
  "userdoc": {
    "kind": "user",
    "methods": {},
    "version": 1
  }
}