{
  "contractName": "RariMineV2",
  "abi": [
    {
      "inputs": [],
      "stateMutability": "nonpayable",
      "type": "constructor"
    },
    {
      "anonymous": false,
      "inputs": [
        {
          "indexed": true,
          "internalType": "address",
          "name": "owner",
          "type": "address"
        },
        {
          "indexed": false,
          "internalType": "uint256",
          "name": "value",
          "type": "uint256"
        }
      ],
      "name": "Claim",
      "type": "event"
    },
    {
      "anonymous": false,
      "inputs": [
        {
          "indexed": true,
          "internalType": "address",
          "name": "previousOwner",
          "type": "address"
        },
        {
          "indexed": true,
          "internalType": "address",
          "name": "newOwner",
          "type": "address"
        }
      ],
      "name": "OwnershipTransferred",
      "type": "event"
    },
    {
      "anonymous": false,
      "inputs": [
        {
          "indexed": true,
          "internalType": "address",
          "name": "owner",
          "type": "address"
        },
        {
          "indexed": false,
          "internalType": "uint256",
          "name": "value",
          "type": "uint256"
        }
      ],
      "name": "Value",
      "type": "event"
    },
    {
      "inputs": [
        {
          "internalType": "address",
          "name": "",
          "type": "address"
        }
      ],
      "name": "claimed",
      "outputs": [
        {
          "internalType": "uint256",
          "name": "",
          "type": "uint256"
        }
      ],
      "stateMutability": "view",
      "type": "function"
    },
    {
      "inputs": [],
      "name": "owner",
      "outputs": [
        {
          "internalType": "address",
          "name": "",
          "type": "address"
        }
      ],
      "stateMutability": "view",
      "type": "function"
    },
    {
      "inputs": [],
      "name": "proxy",
      "outputs": [
        {
          "internalType": "address",
          "name": "",
          "type": "address"
        }
      ],
      "stateMutability": "view",
      "type": "function"
    },
    {
      "inputs": [],
      "name": "renounceOwnership",
      "outputs": [],
      "stateMutability": "nonpayable",
      "type": "function"
    },
    {
      "inputs": [],
      "name": "token",
      "outputs": [
        {
          "internalType": "contract ERC20",
          "name": "",
          "type": "address"
        }
      ],
      "stateMutability": "view",
      "type": "function"
    },
    {
      "inputs": [],
      "name": "tokenOwner",
      "outputs": [
        {
          "internalType": "address",
          "name": "",
          "type": "address"
        }
      ],
      "stateMutability": "view",
      "type": "function"
    },
    {
      "inputs": [
        {
          "internalType": "address",
          "name": "newOwner",
          "type": "address"
        }
      ],
      "name": "transferOwnership",
      "outputs": [],
      "stateMutability": "nonpayable",
      "type": "function"
    },
    {
      "inputs": [
        {
          "internalType": "address",
          "name": "_proxy",
          "type": "address"
        }
      ],
      "name": "setProxy",
      "outputs": [],
      "stateMutability": "nonpayable",
      "type": "function"
    },
    {
      "inputs": [
        {
          "internalType": "address",
          "name": "who",
          "type": "address"
        },
        {
          "internalType": "uint256",
          "name": "amt",
          "type": "uint256"
        }
      ],
      "name": "claim",
      "outputs": [],
      "stateMutability": "nonpayable",
      "type": "function"
    },
    {
      "inputs": [
        {
          "components": [
            {
              "internalType": "address",
              "name": "recipient",
              "type": "address"
            },
            {
              "internalType": "uint256",
              "name": "value",
              "type": "uint256"
            }
          ],
          "internalType": "struct RariMineV2.Balance[]",
          "name": "_balances",
          "type": "tuple[]"
        }
      ],
      "name": "doOverride",
      "outputs": [],
      "stateMutability": "nonpayable",
      "type": "function"
    }
  ],
  "bytecode": "0x608060405234801561001057600080fd5b5061002161001c610026565b61002a565b61007a565b3390565b600080546001600160a01b038381166001600160a01b0319831681178455604051919092169283917f8be0079c531659141344cd1fd0a4f28419497f9722a3daafe3b4186f6b6457e09190a35050565b6107a3806100896000396000f3fe608060405234801561001057600080fd5b506004361061009e5760003560e01c8063aad3ec9611610066578063aad3ec96146100f9578063c884ef831461010c578063ec5568891461012c578063f2fde38b14610134578063fc0c546a146101475761009e565b80630be42fcc146100a3578063715018a6146100b85780638da5cb5b146100c057806397107d6d146100de578063a3e67610146100f1575b600080fd5b6100b66100b1366004610564565b61014f565b005b6100b66102d0565b6100c861031b565b6040516100d5919061064a565b60405180910390f35b6100b66100ec36600461051a565b61032a565b6100c861038b565b6100b661010736600461053b565b61039a565b61011f61011a36600461051a565b610409565b6040516100d591906106fd565b6100c861041b565b6100b661014236600461051a565b61042a565b6100c861049b565b6101576104aa565b6001600160a01b031661016861031b565b6001600160a01b0316146101975760405162461bcd60e51b815260040161018e906106a4565b60405180910390fd5b60005b81518110156102cc578181815181106101c357634e487b7160e01b600052603260045260246000fd5b602002602001015160200151600360008484815181106101f357634e487b7160e01b600052603260045260246000fd5b6020026020010151600001516001600160a01b03166001600160a01b031681526020019081526020016000208190555081818151811061024357634e487b7160e01b600052603260045260246000fd5b6020026020010151600001516001600160a01b03167f4fccb55fc57298c6ed3fb8da8e64b2541fe5ef1a07553abb5123c87d2361ccba83838151811061029957634e487b7160e01b600052603260045260246000fd5b6020026020010151602001516040516102b291906106fd565b60405180910390a2806102c481610730565b91505061019a565b5050565b6102d86104aa565b6001600160a01b03166102e961031b565b6001600160a01b03161461030f5760405162461bcd60e51b815260040161018e906106a4565b61031960006104ae565b565b6000546001600160a01b031690565b6103326104aa565b6001600160a01b031661034361031b565b6001600160a01b0316146103695760405162461bcd60e51b815260040161018e906106a4565b600480546001600160a01b0319166001600160a01b0392909216919091179055565b6002546001600160a01b031681565b6004546001600160a01b031633146103c45760405162461bcd60e51b815260040161018e906106d9565b816001600160a01b03167f47cee97cb7acd717b3c0aa1435d004cd5b3c8c57d70dbceb4e4458bbd60e39d4826040516103fd91906106fd565b60405180910390a25050565b60036020526000908152604090205481565b6004546001600160a01b031681565b6104326104aa565b6001600160a01b031661044361031b565b6001600160a01b0316146104695760405162461bcd60e51b815260040161018e906106a4565b6001600160a01b03811661048f5760405162461bcd60e51b815260040161018e9061065e565b610498816104ae565b50565b6001546001600160a01b031681565b3390565b600080546001600160a01b038381166001600160a01b0319831681178455604051919092169283917f8be0079c531659141344cd1fd0a4f28419497f9722a3daafe3b4186f6b6457e09190a35050565b80356001600160a01b038116811461051557600080fd5b919050565b60006020828403121561052b578081fd5b610534826104fe565b9392505050565b6000806040838503121561054d578081fd5b610556836104fe565b946020939093013593505050565b60006020808385031215610576578182fd5b823567ffffffffffffffff8082111561058d578384fd5b818501915085601f8301126105a0578384fd5b8135818111156105b2576105b2610757565b6105bf8485830201610706565b818152848101908486016040808502870188018b10156105dd578889fd5b8896505b8487101561063b5780828c0312156105f7578889fd5b8051818101818110888211171561061057610610610757565b825261061b836104fe565b8152828901358982015284526001969096019592870192908101906105e1565b50909998505050505050505050565b6001600160a01b0391909116815260200190565b60208082526026908201527f4f776e61626c653a206e6577206f776e657220697320746865207a65726f206160408201526564647265737360d01b606082015260800190565b6020808252818101527f4f776e61626c653a2063616c6c6572206973206e6f7420746865206f776e6572604082015260600190565b6020808252600a908201526950524f58595f4f4e4c5960b01b604082015260600190565b90815260200190565b60405181810167ffffffffffffffff8111828210171561072857610728610757565b604052919050565b600060001982141561075057634e487b7160e01b81526011600452602481fd5b5060010190565b634e487b7160e01b600052604160045260246000fdfea2646970667358221220ad5e33484ad4bb960b0a38b7d967c0751085af4e6ebc77c2c652b7a20b2ff3ad64736f6c63430008000033",
  "immutableReferences": {},
  "source": "// SPDX-License-Identifier: MIT\npragma solidity >=0.4.22 <0.9.0;\n\nimport \"@openzeppelin/contracts/access/Ownable.sol\";\nimport \"@openzeppelin/contracts/token/ERC20/ERC20.sol\";\nimport \"@openzeppelin/contracts/utils/math/SafeMath.sol\";\nimport \"@openzeppelin/contracts/utils/cryptography/ECDSA.sol\";\n\ncontract RariMineV2 is Ownable {\n    using SafeMath for uint256;\n\n    event Claim(address indexed owner, uint256 value);\n    event Value(address indexed owner, uint256 value);\n\n    struct Balance {\n        address recipient;\n        uint256 value;\n    }\n\n    ERC20 public token;\n    address public tokenOwner;\n    mapping(address => uint256) public claimed;\n\n    address public proxy;\n\n    constructor() // ERC20 _token,\n    // address _tokenOwner,\n    // address _proxy\n    {\n        // token = _token;\n        // tokenOwner = _tokenOwner;\n        // proxy = _proxy;\n    }\n\n    function setProxy(address _proxy) public onlyOwner {\n        proxy = _proxy;\n    }\n\n    // function _claim(Balance[] memory _balances, bytes memory signature) public {\n    function claim(address who, uint256 amt) public {\n        // require(\n        //     bytes(prepareMessage(_balances)).recover(signature) == owner(),\n        //     \"owner should sign balances\"\n        // );\n        require(msg.sender == proxy, \"PROXY_ONLY\");\n        emit Claim(who, amt);\n        // for (uint256 i = 0; i < _balances.length; i++) {\n        //     address recipient = _balances[i].recipient;\n        //     if (msg.sender == recipient) {\n        //         uint256 toClaim = _balances[i].value.sub(claimed[recipient]);\n        //         require(toClaim > 0, \"nothing to claim\");\n        //         claimed[recipient] = _balances[i].value;\n        //         require(\n        //             token.transferFrom(tokenOwner, msg.sender, toClaim),\n        //             \"transfer is not successful\"\n        //         );\n        //         emit Claim(recipient, toClaim);\n        //         emit Value(recipient, _balances[i].value);\n        //         return;\n        //     }\n        // }\n        // revert(\"msg.sender not found in receipients\");\n    }\n\n    function doOverride(Balance[] memory _balances) public onlyOwner {\n        for (uint256 i = 0; i < _balances.length; i++) {\n            claimed[_balances[i].recipient] = _balances[i].value;\n            emit Value(_balances[i].recipient, _balances[i].value);\n        }\n    }\n\n    // function prepareMessage(Balance[] memory _balances)\n    //     internal\n    //     returns (string memory)\n    // {\n    //     return toString(keccak256(abi.encode(_balances)));\n    // }\n\n    function toString(bytes32 value) internal pure returns (string memory) {\n        bytes memory alphabet = \"0123456789abcdef\";\n        bytes memory str = new bytes(64);\n        for (uint256 i = 0; i < 32; i++) {\n            str[i * 2] = alphabet[uint8(value[i] >> 4)];\n            str[1 + i * 2] = alphabet[uint8(value[i] & 0x0f)];\n        }\n        return string(str);\n    }\n}\n",
  "sourcePath": "/Users/zhangleping/git.local/rari-token/contracts/RaRiMineV2.sol",
  "compiler": {
    "name": "solc",
    "version": "0.8.0+commit.c7dfd78e.Emscripten.clang"
  },
  "schemaVersion": "3.4.1",
  "updatedAt": "2022-01-10T05:55:43.258Z",
  "devdoc": {
    "kind": "dev",
    "methods": {
      "owner()": {
        "details": "Returns the address of the current owner."
      },
      "renounceOwnership()": {
        "details": "Leaves the contract without owner. It will not be possible to call `onlyOwner` functions anymore. Can only be called by the current owner. NOTE: Renouncing ownership will leave the contract without an owner, thereby removing any functionality that is only available to the owner."
      },
      "transferOwnership(address)": {
        "details": "Transfers ownership of the contract to a new account (`newOwner`). Can only be called by the current owner."
      }
    },
    "version": 1
  },
  "userdoc": {
    "kind": "user",
    "methods": {},
    "version": 1
  }
}