{
  "contractName": "Validator",
  "abi": [
    {
      "inputs": [],
      "stateMutability": "nonpayable",
      "type": "constructor"
    },
    {
      "inputs": [
        {
          "internalType": "bytes32",
          "name": "msgHash",
          "type": "bytes32"
        },
        {
          "internalType": "bytes32",
          "name": "signature",
          "type": "bytes32"
        }
      ],
      "name": "verify",
      "outputs": [
        {
          "internalType": "address",
          "name": "",
          "type": "address"
        }
      ],
      "stateMutability": "nonpayable",
      "type": "function"
    }
  ],
  "bytecode": "0x608060405234801561001057600080fd5b5060c28061001f6000396000f3fe6080604052348015600f57600080fd5b506004361060285760003560e01c80634e8fee0014602d575b600080fd5b603c60383660046058565b6050565b604051604791906078565b60405180910390f35b600092915050565b600080604083850312156069578182fd5b50508035926020909101359150565b6001600160a01b039190911681526020019056fea264697066735822122045126ad1b1ac4c6b87743268e67cef5961edd670036d86737f79716a5ee9931864736f6c63430008000033",
  "immutableReferences": {},
  "source": "// SPDX-License-Identifier: MIT\npragma solidity >=0.4.22 <0.9.0;\n\nimport \"@openzeppelin/contracts/utils/cryptography/ECDSA.sol\";\n\ncontract Validator {\n    constructor() {}\n\n    function verify(bytes32 msgHash, bytes32 signature)\n        public\n        returns (address)\n    {}\n}\n",
  "sourcePath": "/Users/zhangleping/git.local/rari-token/contracts/Validator.sol",
  "compiler": {
    "name": "solc",
    "version": "0.8.0+commit.c7dfd78e.Emscripten.clang"
  },
  "schemaVersion": "3.4.1",
  "updatedAt": "2022-01-10T04:46:43.490Z",
  "devdoc": {
    "kind": "dev",
    "methods": {},
    "version": 1
  },
  "userdoc": {
    "kind": "user",
    "methods": {},
    "version": 1
  }
}